:100000001FC100000C94EA1E0C941B1F0C944C1F83
:100010000C947D1F0C94AE1F0C94DF1F0C941020C9
:100020000C9441203EC100003CC100003AC10000D8
:1000300038C100000C946C2734C1000032C10000AC
:1000400030C100002EC100002CC100002AC10000F8
:1000500028C1000026C1000024C100000C947220B9
:1000600020C100000C94A6230C94DC231AC10000CC
:1000700018C1000016C1000014C1000012C1000028
:1000800010C100000EC100000CC100000AC1000038
:100090000C9448240C947E2404C1000002C100008A
:1000A00000C10000FEC00000FCC00000FAC000005B
:1000B000F8C00000F6C00000F4C00000F2C000006C
:1000C000F0C00000EEC000000C94CF270C94EA248E
:1000D0000C942025E6C000000C948C250C94C225BD
:1000E000E0C00000712176217B2185218F2108222B
:1000F0009921A121A921B321BD21C721D621E02128
:100100000822EA21F421FE212A222D221C2220226B
:1001100026226422312235223B223F2243224922D9
:100120004D225122642257225B225F2200000A0BDB
:1001300002090C0D0E080703040100000000000076
:1001400000000000000000000000000000000000AF
:10015000000000000000000012111000000000006C
:10016000000000000000000000000000000000008F
:1001700000000102102020080810204010204080BC
:10018000020102010804020101020408102040805B
:1001900080402010080402018004020180402010E9
:1001A0000804020108040201010204081020408032
:1001B0000102040810204080050505050705080810
:1001C0000808020202020A0A0808040404040101E1
:1001D00001010101010103030303030303030407F6
:1001E00007070C0C0C0C0C0C0C0C0202020206068D
:1001F0000606060606060B0B0B0B0B0B0B0B000083
:100200002200250028002B002E00310034000201BE
:100210000000050108010B01000021002400270057
:100220002A002D0030003300010100000401070105
:100230000A010200D81E0524A7244925EB256526BE
:1002400011241FBECFEFD1E2DEBFCDBF00E00CBF57
:100250001DE0A0E0B2E0EAEDF6E500E00BBF02C071
:1002600007900D92A43BB107D9F723E1A4EBBDE0C1
:1002700001C01D92A033B207E1F712E0C0E4D2E062
:1002800000E006C022970109FE010BBF0E94672B08
:10029000C433D10780E00807A9F70E9438280C94DE
:1002A0006B2BAECE2F923F924F925F926F927F92C6
:1002B0008F929F92AF92BF92CF92DF92EF92FF9276
:1002C0000F931F93CF93DF9300D000D0CDB7DEB74D
:1002D0004B015C015E834D83190167017801DA01EE
:1002E0004D905D906D907C90A30192010E94ED284D
:1002F0001816FCF0A3019201C501B4010E947528F3
:100300006B017C01A3019201ED81FE816481758105
:10031000868197810E9475289B01AC01C701B601B7
:100320000E94F1286B017C0119821A821B821C82B7
:1003300099C08601000F111F000F111F2D813E81F2
:10034000020F131FD8014D905D906D907C90A3011A
:100350009201C501B4010E94ED2887FF5DC026010E
:100360003701769467945794479419821A821B82B6
:100370001C82D701C60129813A814B815C81821B95
:10038000930BA40BB50B0297A105B10538F1F2014F
:10039000EE0FFF1FEE0FFF1F2D813E81E20FF31FB7
:1003A0002081318142815381C501B4010E94ED2831
:1003B00087FF03C07301620104C049825A826B82C5
:1003C0007C8249805A806B807C804C0C5D1C6E1C4A
:1003D0007F1C7694679457944794CBCF7901EE0CA9
:1003E000FF1CEE0CFF1C4D815E81E40EF51ED70153
:1003F0004D905D906D907C90A3019201C501B40178
:100400000E9475284B015C01A3019201F7016481F0
:100410007581868197811CC0A70196012150310901
:100420004109510929833A834B835C83F80134974E
:10043000C080D180E280F380A7019601C501B4019C
:100440000E9475284B015C01A7019601C301B2010E
:100450000E9475289B01AC01C501B4010E94F128DE
:100460006B017C01E981FA813196EE0FFF1FEE0FDF
:10047000FF1FE20DF31DDF0114978D909D90AD904D
:10048000BC90A501940160817181828193810E9459
:100490007528A70196010E94DC2AA50194010E94FB
:1004A000762826960FB6F894DEBF0FBECDBFDF913B
:1004B000CF911F910F91FF90EF90DF90CF90BF9061
:1004C000AF909F908F907F906F905F904F903F90F4
:1004D0002F900895CF92DF92EF92FF926B017C01F3
:1004E0009F7720E030E040E859E50E94ED2887FF43
:1004F0003AC020E030E040E05FE3C701B6010E946F
:10050000D82A87FD0EC020E030E040E05FE3C7015D
:10051000B6010E947628FF90EF90DF90CF900C9468
:10052000C22920E030E040E05FEBC701B6010E9445
:10053000D82A181654F420E030E0A901C701B6010A
:100540000E94DC2A6B017C010EC020E030E040E01C
:100550005FE3C701B6010E947528FF90EF90DF901E
:10056000CF900C94DA28C701B601FF90EF90DF908E
:10057000CF9008954F925F926F927F928F929F9249
:10058000AF92BF92CF92DF92EF92FF92CF93DF9321
:1005900000D01F92CDB7DEB74B015C0169017A0133
:1005A0000E94C01C882349F0609124137091251388
:1005B00080912613909127137DC0C501B4010E943C
:1005C000951C8111F1CFC701B6010E94C01C811199
:1005D000EBCFC701B6010E94951C8111E5CF20E049
:1005E00030E0A901C701B6010E94ED2887FF07C0CE
:1005F000C701B6010E94DA282B013C010FC0C701D8
:10060000B6010E94C2292B013C0120E030E0A90183
:10061000C701B6010E94ED28882389F1A301920148
:10062000C701B6010E94ED28882349F1A701960170
:10063000C501B4010E94F1282B013C014BDF9B0155
:10064000AC01C301B2010E9475289B01AC015F7728
:1006500029833A834B835C83C301B2019F7720E0F7
:1006600030E040E054E30E94DC2A9B01AC01698148
:100670007A818B819C810E94ED281816C4F4A70111
:100680009601C501B4010F900F900F900F90DF916C
:10069000CF91FF90EF90DF90CF90BF90AF909F9061
:1006A0008F907F906F905F904F900C94DC2960E06A
:1006B00070E0CB010F900F900F900F90DF91CF91D2
:1006C000FF90EF90DF90CF90BF90AF909F908F9072
:1006D0007F906F905F904F9008952F923F924F922E
:1006E0005F926F927F928F929F92AF92BF92CF92C2
:1006F000DF92EF92FF920F931F93CF93DF93CDB7CB
:10070000DEB76A970FB6F894DEBF0FBECDBF8091FB
:100710000E0D0E942821C0905A04D0905B04E090F6
:100720005C04F0905D04BC0180E090E00E948529AB
:100730002091520430915304409154045091550437
:100740000E94DC2A209156043091570440915804AD
:10075000509159040E94F1284B015C0120915E04E4
:1007600030915F044091600450916104C701B6016B
:100770000E9476289B01AC01C701B6010E94F128B6
:100780009B01AC01C501B4010E94F1286B877C87F5
:100790008D879E878091120D0E942821BC0180E0E8
:1007A00090E00E9485292091660430916704409171
:1007B0006804509169040E94F12820916A043091E4
:1007C0006B0440916C0450916D040E94DC2A2091CE
:1007D0006E0430916F0440917004509171040E9436
:1007E00075282091720430917304409174045091E3
:1007F00075040E94F1286D8B7E8B8F8B988FC09033
:100800000A11D0900B11E0900C11F0900D112B8576
:100810003C854D855E85C701B6010E9475289B0108
:10082000AC0160E070E080E89FE30E94F1284B019A
:100830005C012D893E894F89588D6B857C858D851E
:100840009E850E94DC2A2B013C0120910E113091E3
:100850000F114091101150911111C701B6010E9462
:10086000DC2A9B01AC01C301B2010E9475289B01E7
:10087000AC01C501B4010E94DC2A1B012C0120E05F
:1008800030E04CE451EC0E94ED2887FD0AC020E0E6
:1008900030E048E850ECC201B1010E94D82A181695
:1008A0004CF48091660D9091670DA091680DB09108
:1008B000690D12C020E030E048E051ECC201B10106
:1008C0000E94ED28811111C08091620D9091630DFD
:1008D000A091640DB091650D8093F2129093F31284
:1008E000A093F412B093F5125FC020E030E048E02E
:1008F00051ECC201B1010E94ED2887FF23C0C090D6
:100900000A02D0900B02E0900C02F0900D02A701B9
:100910009601C201B1010E9475284B015C01A7013B
:10092000960160913202709133028091340290916D
:1009300035020E9475289B01AC01C501B4010E94DB
:10094000F1282AC0C0905A02D0905B02E0905C026D
:10095000F0905D02209132023091330240913402D6
:1009600050913502C701B6010E9475289B01AC0168
:1009700060E070E080E89FE30E94F1284B015C0199
:10098000A2019101C701B6010E9475289B01AC012B
:10099000C501B4010E94DC2A6093F2127093F31235
:1009A0008093F4129093F51220911211309113114B
:1009B0004091141150911511C201B1010E94752886
:1009C0006B017C016093EE127093EF128093F01232
:1009D0009093F1122AE939E949E150EC0E94ED289F
:1009E00087FD0AC02DEC3CEC4CE45FEBC701B6017F
:1009F0000E94D82A18164CF480913E0D90913F0D1C
:100A0000A091400DB091410D12C02DEC3CEC4CEC8E
:100A10005FEBC701B6010E94ED28811111C08091E2
:100A20003A0D90913B0DA0913C0DB0913D0D8093FE
:100A3000F6129093F712A093F812B093F91263C0D4
:100A40002DEC3CEC4CEC5FEBC701B6010E94ED28AD
:100A500087FF23C080900E0290900F02A09010029A
:100A6000B0901102A5019401C701B6010E9475283A
:100A70006B017C01A50194016091360270913702EF
:100A800080913802909139020E9475289B01AC0137
:100A9000C701B6010E94F1282EC080905E0290909E
:100AA0005F02A0906002B090610220913602309106
:100AB00037024091380250913902C501B4010E94B9
:100AC00075289B01AC0160E070E080E89FE30E9424
:100AD000F12869837A838B839C83A7019601C501E2
:100AE000B4010E9475289B01AC0169817A818B81D8
:100AF0009C810E94DC2A6093F6127093F712809317
:100B0000F8129093F912C090F612D090F712E0907C
:100B1000F812F090F912A70196016091F21270910B
:100B2000F3128091F4129091F5120E94ED2818169C
:100B30004CF08091F2129091F312A091F412B091C6
:100B4000F5120EC0C701B6010E94C01C8111F1CF81
:100B50008091F6129091F712A091F812B091F912CB
:100B60008093BE129093BF12A093C012B093C11293
:100B70002091BE123091BF124091C0125091C1120B
:100B800060914A0470914B0480914C0490914D0403
:100B90000E94DC2A6093B6127093B7128093B81249
:100BA0009093B912C090EE12D090EF12E090F01234
:100BB000F090F1122DEC3CEC4CEC5FEBC701B60170
:100BC0000E94ED2887FD09C020E030E0A901C7019F
:100BD000B6010E94D82A18164CF48091360D9091D7
:100BE000370DA091380DB091390D12C02DEC3CECB1
:100BF0004CE45FEBC701B6010E94ED28811111C0E2
:100C00008091320D9091330DA091340DB091350D3E
:100C10008093FA129093FB12A093FC12B093FD12F2
:100C200063C02DEC3CEC4CE45FEBC701B6010E94C5
:100C3000ED2887FF23C08090120290901302A090AD
:100C40001402B0901502A5019401C701B6010E94DB
:100C500075286B017C01A501940160913A027091A5
:100C60003B0280913C0290913D020E9475289B01BD
:100C7000AC01C701B6010E94F1282EC0809062022B
:100C800090906302A0906402B090650220913A02B5
:100C900030913B0240913C0250913D02C501B401AC
:100CA0000E9475289B01AC0160E070E080E89FE342
:100CB0000E94F12869837A838B839C83A701960124
:100CC000C501B4010E9475289B01AC0169817A813C
:100CD0008B819C810E94DC2A6093FA127093FB1234
:100CE0008093FC129093FD12C090FA12D090FB12E8
:100CF000E090FC12F090FD12A70196016091F212B3
:100D00007091F3128091F4129091F5120E94ED28E7
:100D100018164CF08091F2129091F312A091F412F7
:100D2000B091F5120EC0C701B6010E94C01C81111E
:100D3000F1CF8091FA129091FB12A091FC12B09128
:100D4000FD128093BE129093BF12A093C012B09375
:100D5000C1122091BE123091BF124091C012509129
:100D6000C11260910E0670910F068091100690914D
:100D700011060E94DC2A6093B2127093B312809322
:100D8000B4129093B512C090EE12D090EF12E09092
:100D9000F012F090F1122DEC3CEC4CE45FEBC7014B
:100DA000B6010E94ED2887FD0AC02DEC3CEC4CE416
:100DB0005FE3C701B6010E94D82A18164CF480914F
:100DC0001E0D90911F0DA091200DB091210D11C00D
:100DD00020E030E0A901C701B6010E94ED28811191
:100DE00011C080911A0D90911B0DA0911C0DB09116
:100DF0001D0D8093FE129093FF12A0930013B093E9
:100E0000011362C020E030E0A901C701B6010E94D1
:100E1000ED2887FF23C08090160290901702A090C3
:100E20001802B0901902A5019401C701B6010E94F1
:100E300075286B017C01A501940160913E027091BF
:100E40003F0280914002909141020E9475289B01CF
:100E5000AC01C701B6010E94F1282EC08090660245
:100E600090906702A0906802B090690220913E02C3
:100E700030913F024091400250914102C501B401BE
:100E80000E9475289B01AC0160E070E080E89FE360
:100E90000E94F12869837A838B839C83A701960142
:100EA000C501B4010E9475289B01AC0169817A815A
:100EB0008B819C810E94DC2A6093FE127093FF124A
:100EC0008093001390930113C090FE12D090FF12F4
:100ED000E0900013F0900113A70196016091F212C7
:100EE0007091F3128091F4129091F5120E94ED2806
:100EF00018164CF08091F2129091F312A091F41216
:100F0000B091F5120EC0C701B6010E94C01C81113C
:100F1000F1CF8091FE129091FF12A0910013B09139
:100F200001138093BE129093BF12A093C012B0938E
:100F3000C1122091BE123091BF124091C012509147
:100F4000C1126091A6077091A7078091A8079091A0
:100F5000A9070E94DC2A6093BA127093BB12809397
:100F6000BC129093BD12C090EE12D090EF12E090A0
:100F7000F012F090F11220E030E0A901C701B601B3
:100F80000E94ED2887FD0AC02DEC3CEC4CEC5FE3A1
:100F9000C701B6010E94D82A18164CF48091260D7C
:100FA0009091270DA091280DB091290D12C02DEC24
:100FB0003CEC4CE45FE3C701B6010E94ED288111CF
:100FC00011C08091220D9091230DA091240DB0911C
:100FD000250D8093021390930313A0930413B093F1
:100FE000051363C02DEC3CEC4CE45FE3C701B60194
:100FF0000E94ED2887FF23C080901A0290901B0268
:10100000A0901C02B0901D02A5019401C701B60179
:101010000E9475286B017C01A50194016091420238
:101020007091430280914402909145020E9475287C
:101030009B01AC01C701B6010E94F1282EC080902F
:101040006A0290906B02A0906C02B0906D022091A9
:101050004202309143024091440250914502C50141
:10106000B4010E9475289B01AC0160E070E080E84B
:101070009FE30E94F12869837A838B839C83A70175
:101080009601C501B4010E9475289B01AC016981DC
:101090007A818B819C810E94DC2A60930213709379
:1010A00003138093041390930513C0900213D09000
:1010B0000313E0900413F0900513A70196016091CB
:1010C000F2127091F3128091F4129091F5120E9435
:1010D000ED2818164CF08091F2129091F312A09125
:1010E000F412B091F5120EC0C701B6010E94C01CE7
:1010F0008111F1CF8091021390910313A0910413F9
:10110000B09105138093BE129093BF12A093C012AA
:10111000B093C11220913E0930913F09409140099E
:10112000509141096091BE127091BF128091C0121E
:101130009091C1120E94DC2A6093BE127093BF127C
:101140008093C0129093C112C090EE12D090EF1213
:10115000E090F012F090F1122DEC3CEC4CE45FE3E7
:10116000C701B6010E94ED2887FD0AC02AE939E9C6
:1011700049E150E4C701B6010E94D82A18164CF480
:1011800080912E0D90912F0DA091300DB091310DC9
:1011900012C02DEC3CEC4CEC5FE3C701B6010E94A1
:1011A000ED28811111C080912A0D90912B0DA091F5
:1011B0002C0DB0912D0D8093061390930713A093DF
:1011C0000813B093091363C02DEC3CEC4CEC5FE3C7
:1011D000C701B6010E94ED2887FF23C080901E0240
:1011E00090901F02A0902002B0902102A5019401CE
:1011F000C701B6010E9475286B017C01A50194010D
:101200006091460270914702809148029091490294
:101210000E9475289B01AC01C701B6010E94F1280C
:101220002EC080906E0290906F02A0907002B090DD
:10123000710220914602309147024091480250913C
:101240004902C501B4010E9475289B01AC0160E010
:1012500070E080E89FE30E94F12869837A838B83A2
:101260009C83A7019601C501B4010E9475289B01CA
:10127000AC0169817A818B819C810E94DC2A609318
:101280000613709307138093081390930913C0906B
:101290000613D0900713E0900813F0900913A701EC
:1012A00096016091F2127091F3128091F412909174
:1012B000F5120E94ED281816B4F4C701B6010E9479
:1012C000C01C811110C08091061390910713A0914A
:1012D0000813B09109138093F2129093F312A09324
:1012E000F412B093F51220914209309143094091D4
:1012F0004409509145096091F2127091F312809166
:10130000F4129091F5120E94DC2A6093F21270930D
:10131000F3128093F4129093F51220E030E048E04D
:1013200051ECC201B1010E94ED2887FD09C020E007
:1013300030E0A901C201B1010E94D82A18164CF46C
:1013400080915E0D90915F0DA091600DB091610D47
:1013500012C020E030E048E850ECC201B1010E9428
:10136000ED28811111C080915A0D90915B0DA091D3
:101370005C0DB0915D0D80930A1390930B13A093B5
:101380000C13B0930D135FC020E030E048E850EC40
:10139000C201B1010E94ED2887FF23C0C090220244
:1013A000D0902302E0902402F0902502A70196013C
:1013B000C201B1010E9475284B015C01A701960191
:1013C00060914A0270914B0280914C0290914D02C3
:1013D0000E9475289B01AC01C501B4010E94F1284F
:1013E0002AC0C0907202D0907302E0907402F09014
:1013F000750220914A0230914B0240914C0250916B
:101400004D02C701B6010E9475289B01AC0160E046
:1014100070E080E89FE30E94F1284B015C01A2018B
:101420009101C701B6010E9475289B01AC01C5015D
:10143000B4010E94DC2A60930A1370930B1380930B
:101440000C1390930D13C090F612D090F712E09009
:10145000F812F090F912A701960160910A137091A9
:101460000B1380910C1390910D130E94ED28181608
:101470004CF080910A1390910B13A0910C13B09132
:101480000D130EC0C701B6010E94C01C8111F1CF1F
:101490008091F6129091F712A091F812B091F91282
:1014A0008093CA129093CB12A093CC12B093CD121A
:1014B0002091CA123091CB124091CC125091CD1292
:1014C0006091DA0A7091DB0A8091DC0A9091DD0A62
:1014D0000E94DC2A6093EE127093EF128093F01258
:1014E0009093F112C090FA12D090FB12E090FC128F
:1014F000F090FD12A701960160910A1370910B13F1
:1015000080910C1390910D130E94ED2818164CF049
:1015100080910A1390910B13A0910C13B0910D13AD
:101520000EC0C701B6010E94C01C8111F1CF80918D
:10153000FA129091FB12A091FC12B091FD128093CF
:10154000CA129093CB12A093CC12B093CD122091DB
:10155000CA123091CB124091CC125091CD126091B1
:10156000DE0A7091DF0A8091E00A9091E10A0E9400
:10157000DC2A6093C2127093C3128093C4129093BA
:10158000C512C090FE12D090FF12E0900013F090B0
:101590000113A701960160910A1370910B138091BA
:1015A0000C1390910D130E94ED2818164CF08091A9
:1015B0000A1390910B13A0910C13B0910D130EC050
:1015C000C701B6010E94C01C8111F1CF8091FE12AB
:1015D0009091FF12A0910013B09101138093CA1251
:1015E0009093CB12A093CC12B093CD122091CA123B
:1015F0003091CB124091CC125091CD126091E20A01
:101600007091E30A8091E40A9091E50A0E94DC2A35
:101610006093C6127093C7128093C8129093C91238
:10162000C0900213D0900313E0900413F0900513C0
:10163000A701960160910A1370910B1380910C130E
:1016400090910D130E94ED2818164CF080910A130A
:1016500090910B13A0910C13B0910D130EC0C70104
:10166000B6010E94C01C8111F1CF809102139091AC
:101670000313A0910413B09105138093CA129093A1
:10168000CB12A093CC12B093CD122091E60A3091E8
:10169000E70A4091E80A5091E90A6091CA127091F4
:1016A000CB128091CC129091CD120E94DC2A6093D3
:1016B000CA127093CB128093CC129093CD12C0902B
:1016C0000613D0900713E0900813F0900913A701B8
:1016D000960160910A1370910B1380910C139091F5
:1016E0000D130E94ED281816B4F4C701B6010E942C
:1016F000C01C811110C08091061390910713A09116
:101700000813B091091380930A1390930B13A093BD
:101710000C13B0930D132091EA0A3091EB0A40911B
:10172000EC0A5091ED0A60910A1370910B138091AD
:101730000C1390910D130E94DC2A60930A1370938E
:101740000B1380930C1390930D1320E030E048E8C6
:1017500050ECC201B1010E94ED2887FD0AC020E0D3
:1017600030E048E850E4C201B1010E94D82A1816BE
:101770004CF48091460D9091470DA091480DB09189
:10178000490D11C020E030E0A901C201B1010E9461
:10179000ED28811111C08091420D9091430DA091CF
:1017A000440DB091450D80930E1390930F13A093A9
:1017B0001013B09311135EC020E030E0A901C20104
:1017C000B1010E94ED2887FF23C0C0902602D0906F
:1017D0002702E0902802F0902902A7019601C20199
:1017E000B1010E9475284B015C01A701960160912F
:1017F0004E0270914F0280915002909151020E94CE
:1018000075289B01AC01C501B4010E94F1282AC0D2
:10181000C0907602D0907702E0907802F090790242
:1018200020914E0230914F0240915002509151024E
:10183000C701B6010E9475289B01AC0160E070E011
:1018400080E89FE30E94F1284B015C01A201910115
:10185000C701B6010E9475289B01AC01C501B40106
:101860000E94DC2A60930E1370930F138093101361
:1018700090931113C090F612D090F712E090F812E6
:10188000F090F912A701960160910E1370910F1359
:1018900080911013909111130E94ED2818164CF0AE
:1018A00080910E1390910F13A0911013B09111130A
:1018B0000EC0C701B6010E94C01C8111F1CF8091FA
:1018C000F6129091F712A091F812B091F91280934C
:1018D000DA129093DB12A093DC12B093DD12209108
:1018E000DA123091DB124091DC125091DD126091DE
:1018F000EE0A7091EF0A8091F00A9091F10A0E942D
:10190000DC2A6093CE127093CF128093D012909302
:10191000D112C090FA12D090FB12E090FC12F0901D
:10192000FD12A701960160910E1370910F13809123
:101930001013909111130E94ED2818164CF080910D
:101940000E1390910F13A0911013B09111130EC0AC
:10195000C701B6010E94C01C8111F1CF8091FA121B
:101960009091FB12A091FC12B091FD128093DA12BB
:101970009093DB12A093DC12B093DD122091DA1267
:101980003091DB124091DC125091DD126091860C97
:101990007091870C8091880C9091890C0E94DC2AB0
:1019A0006093D2127093D3128093D4129093D51275
:1019B000C090FE12D090FF12E0900013F09001133F
:1019C000A701960160910E1370910F13809110136F
:1019D000909111130E94ED2818164CF080910E136F
:1019E00090910F13A0911013B09111130EC0C70165
:1019F000B6010E94C01C8111F1CF8091FE1290911E
:101A0000FF12A0910013B09101138093DA1290930A
:101A1000DB12A093DC12B093DD122091DA12309128
:101A2000DB124091DC125091DD1260918A0C7091B2
:101A30008B0C80918C0C90918D0C0E94DC2A609311
:101A4000D6127093D7128093D8129093D912C09067
:101A50000213D0900313E0900413F0900513A70134
:101A6000960160910E1370910F1380911013909155
:101A700011130E94ED2818164CF080910E139091CE
:101A80000F13A0911013B09111130EC0C701B6012E
:101A90000E94C01C8111F1CF809102139091031319
:101AA000A0910413B09105138093DA129093DB1286
:101AB000A093DC12B093DD1220918E0C30918F0C2C
:101AC0004091900C5091910C6091DA127091DB1260
:101AD0008091DC129091DD120E94DC2A6093DA1270
:101AE0007093DB128093DC129093DD12C09006138A
:101AF000D0900713E0900813F0900913A701960106
:101B000060910E1370910F13809110139091111327
:101B10000E94ED281816B4F4C701B6010E94C01C3B
:101B2000811110C08091061390910713A0910813A2
:101B3000B091091380930E1390930F13A093101379
:101B4000B09311132091920C3091930C4091940C0E
:101B50005091950C60910E1370910F13809110139A
:101B6000909111130E94DC2A60930E1370930F134F
:101B7000809310139093111320E030E0A901C2016B
:101B8000B1010E94ED2887FD0AC020E030E048E066
:101B900051E4C201B1010E94D82A18164CF4C09039
:101BA0004E0DD0904F0DE090500DF090510D6CC047
:101BB00020E030E048E850E4C201B1010E94ED2885
:101BC000811109C0C0904A0DD0904B0DE0904C0D92
:101BD000F0904D0D59C020E030E048E850E4C201DB
:101BE000B1010E94ED2887FF23C0C0902A02D09047
:101BF0002B02E0902C02F0902D02A7019601C20169
:101C0000B1010E9475284B015C01A701960160910A
:101C100052027091530280915402909155020E9499
:101C200075289B01AC01C501B4010E94F1282AC0AE
:101C3000C0907A02D0907B02E0907C02F0907D020E
:101C4000209152023091530240915402509155021A
:101C5000C701B6010E9475289B01AC0160E070E0ED
:101C600080E89FE30E94F1284B015C01A2019101F1
:101C7000C701B6010E9475289B01AC01C501B401E2
:101C80000E94DC2A6B017C018090F6129090F71282
:101C9000A090F812B090F912A5019401C701B60105
:101CA0000E94ED2818164CF0C092EA12D092EB1266
:101CB000E092EC12F092ED1216C0C501B4010E9440
:101CC000C01C8111F1CF8091F6129091F712A09172
:101CD000F812B091F9128093EA129093EB12A0934C
:101CE000EC12B093ED122091EA123091EB12409178
:101CF000EC125091ED126091960C7091970C8091BE
:101D0000980C9091990C0E94DC2A6093DE127093DB
:101D1000DF128093E0129093E1128090FA1290907B
:101D2000FB12A090FC12B090FD12A5019401C70116
:101D3000B6010E94ED2818164CF0C092EA12D0921B
:101D4000EB12E092EC12F092ED1216C0C501B40154
:101D50000E94C01C8111F1CF8091FA129091FB1268
:101D6000A091FC12B091FD128093EA129093EB12B5
:101D7000A093EC12B093ED122091EA123091EB1285
:101D80004091EC125091ED1260919A0C70919B0C65
:101D900080919C0C90919D0C0E94DC2A6093E21231
:101DA0007093E3128093E4129093E5128090FE12F8
:101DB0009090FF12A0900013B0900113A501940120
:101DC000C701B6010E94ED2818164CF0C092EA1225
:101DD000D092EB12E092EC12F092ED1216C0C50117
:101DE000B4010E94C01C8111F1CF8091FE1290912C
:101DF000FF12A0910013B09101138093EA12909307
:101E0000EB12A093EC12B093ED122091EA123091F4
:101E1000EB124091EC125091ED1260919E0C70917A
:101E20009F0C8091A00C9091A10C0E94DC2A6093E1
:101E3000E6127093E7128093E8129093E912809073
:101E4000021390900313A0900413B0900513A50102
:101E50009401C701B6010E94ED2818164CF0C092FB
:101E6000EA12D092EB12E092EC12F092ED1216C050
:101E7000C501B4010E94C01C8111F1CF80910213F1
:101E800090910313A0910413B09105138093EA126B
:101E90009093EB12A093EC12B093ED122091A20C50
:101EA0003091A30C4091A40C5091A50C6091EA12C2
:101EB0007091EB128091EC129091ED120E94DC2A4D
:101EC0006093EA127093EB128093EC129093ED12F0
:101ED0008090061390900713A0900813B0900913F8
:101EE000A5019401C701B6010E94ED28181674F4EB
:101EF000C501B4010E94C01C811108C0C090061326
:101F0000D0900713E0900813F09009132091A60CCD
:101F10003091A70C4091A80C5091A90CC701B601B3
:101F20000E94DC2A6F87788B898B9A8B20E030E0C7
:101F300048E850E4C201B1010E94ED2887FD0AC0C3
:101F400020E030E04CE451E4C201B1010E94D82A03
:101F500018164CF4C090560DD090570DE090580DC7
:101F6000F090590D6CC020E030E048E051E4C2012F
:101F7000B1010E94ED28811109C0C090520DD0908E
:101F8000530DE090540DF090550D59C020E030E015
:101F900048E051E4C201B1010E94ED2887FF23C04F
:101FA000C0902E02D0902F02E0903002F0903102CB
:101FB000A7019601C201B1010E9475284B015C0185
:101FC000A7019601609156027091570280915802C4
:101FD000909159020E9475289B01AC01C501B40182
:101FE0000E94F1282AC0C0907E02D0907F02E0902B
:101FF0008002F09081022091560230915702409168
:10200000580250915902C701B6010E9475289B01E0
:10201000AC0160E070E080E89FE30E94F1284B0192
:102020005C01A2019101C701B6010E9475289B01C4
:10203000AC01C501B4010E94DC2A6B017C018090D7
:10204000F6129090F712A090F812B090F912A50134
:102050009401C701B6010E94ED2818164CF0C092F9
:10206000F612D092F712E092F812F092F91206C02E
:10207000C501B4010E94C01C8111F1CF2091AA0CAE
:102080003091AB0C4091AC0C5091AD0C6091F612BC
:102090007091F7128091F8129091F9120E94DC2A47
:1020A0006093F6127093F7128093F8129093F912DE
:1020B0008090FA129090FB12A090FC12B090FD124A
:1020C000A5019401C701B6010E94ED2818164CF035
:1020D000C092FA12D092FB12E092FC12F092FD1222
:1020E00006C0C501B4010E94C01C8111F1CF20912E
:1020F000AE0C3091AF0C4091B00C5091B10C60918E
:10210000FA127091FB128091FC129091FD120E94C4
:10211000DC2A6093FA127093FB128093FC12909366
:10212000FD128090FE129090FF12A0900013B090CC
:102130000113A5019401C701B6010E94ED281816EC
:102140004CF0C092FE12D092FF12E0920013F09277
:10215000011306C0C501B4010E94C01C8111F1CF5A
:102160002091B20C3091B30C4091B40C5091B50C4D
:102170006091FE127091FF128091001390910113F3
:102180000E94DC2A6093FE127093FF12809300136A
:10219000909301138090021390900313A090041366
:1021A000B0900513A5019401C701B6010E94ED2866
:1021B00018164CF0C0920213D0920313E09204134D
:1021C000F092051306C0C501B4010E94C01C811124
:1021D000F1CF2091B60C3091B70C4091B80C5091D2
:1021E000B90C6091021370910313809104139091C4
:1021F00005130E94DC2A60930213709303138093EB
:102200000413909305138090061390900713A090E9
:102210000813B0900913A5019401C701B6010E94EB
:10222000ED2818164CF0C0920613D0920713E092D6
:102230000813F092091306C0C501B4010E94C01C26
:102240008111F1CF2091BA0C3091BB0C4091BC0CA4
:102250005091BD0C60910613709107138091081383
:10226000909109130E94DC2A609306137093071360
:102270008093081390930913BAE76B2EB4E07B2E7A
:1022800082E196E098878F83AAEAB7E0BE83AD83A8
:1022900016E4812E19E0912EE2EFFAE0FA83E98349
:1022A0008AE191E19A8789871C8A1B8AD301CD90A4
:1022B000DD90ED90FC90A70196016091B6127091AF
:1022C000B7128091B8129091B9120E94ED28181699
:1022D0005CF0A090B612B090B712B091B812B98F5E
:1022E000E091B912EA8F11C0C701B6010E94C01C6B
:1022F0008111EFCFD301AC901196BC90119712963B
:10230000BC91B98FF301F381FA8FAF81B885CD907D
:10231000DD90ED90FC90A70196016091B212709152
:10232000B3128091B4129091B5120E94ED28181644
:102330004CF0E090B212F090B3120091B4121091F0
:10234000B5120CC0C701B6010E94C01C8111F1CFAB
:10235000EF81F885E080F180028113819701A80167
:10236000B501898D9A8D0E94D82A87FF09C0B701CF
:10237000C8010E94C01C811103C05701098F1A8F28
:10238000AD81BE81CD90DD90ED90FC90A7019601CE
:102390006091BA127091BB128091BC129091BD12E3
:1023A0000E94ED2818164CF0E090BA12F090BB1283
:1023B0000091BC121091BD120CC0C701B6010E9461
:1023C000C01C8111F1CFED81FE81E080F18002819E
:1023D00013819701A801B501898D9A8D0E94D82A91
:1023E00087FF09C0B701C8010E94C01C811103C04A
:1023F0005701098F1A8FAD81BE81CD90DD90ED9090
:10240000FC90A70196016091BE127091BF1280915D
:10241000C0129091C1120E94ED2818164CF0E09065
:10242000BE12F090BF120091C0121091C1120CC0E8
:10243000C701B6010E94C01C8111F1CFED81FE8160
:10244000E080F180028113819701A801B501898D97
:102450009A8D0E94D82A87FF09C0B701C8010E943F
:10246000C01C811103C05701098F1A8FD401CD9070
:10247000DD90ED90FC90A70196016091F2127091B1
:10248000F3128091F4129091F5120E94ED28181623
:102490004CF0E090F212F090F3120091F4121091CF
:1024A000F5120BC0C701B6010E94C01C8111F1CF0B
:1024B000F401E080F180028113819701A801B50148
:1024C000898D9A8D0E94D82A87FF09C0B701C8015B
:1024D0000E94C01C811103C05701098F1A8FD301BC
:1024E000CD90DD90ED90FC90A70196016091EE12E9
:1024F0007091EF128091F0129091F1120E94ED28EC
:1025000018164CF0E090EE12F090EF120091F012DD
:102510001091F1120BC0C701B6010E94C01C8111BD
:10252000F1CFF301E080F180028113819701A801CE
:10253000B501898D9A8D0E94D82A87FF09C0B701FD
:10254000C8010E94C01C811103C05701098F1A8F56
:10255000D301CD90DD90ED90FC90A70196016091A4
:10256000C2127091C3128091C4129091C5120E9440
:10257000ED2818164CF0E090C212F090C3120091B2
:10258000C4121091C5120BC0C701B6010E94C01C35
:102590008111F1CFF301E080F18002811381970175
:1025A000A801B501898D9A8D0E94D82A87FF09C09C
:1025B000B701C8010E94C01C811103C05701098FD7
:1025C0001A8FD401CD90DD90ED90FC90A70196017B
:1025D0006091C6127091C7128091C8129091C91271
:1025E0000E94ED2818164CF0E090C612F090C71229
:1025F0000091C8121091C9120BC0C701B6010E9408
:10260000C01C8111F1CFF401E080F18002811381BF
:102610009701A801B501898D9A8D0E94D82A87FF5C
:1026200009C0B701C8010E94C01C811103C0570135
:10263000098F1A8FD401CD90DD90ED90FC90A70109
:1026400096016091CA127091CB128091CC12909138
:10265000CD120E94ED2818164CF0E090CA12F090AE
:10266000CB120091CC121091CD120BC0C701B60154
:102670000E94C01C8111F1CFF401E080F180028141
:1026800013819701A801B501898D9A8D0E94D82ADE
:1026900087FF09C0B701C8010E94C01C811103C097
:1026A0005701098F1A8FD401CD90DD90ED90FC90E9
:1026B000A701960160910A1370910B1380910C137E
:1026C00090910D130E94ED2818164CF0E0900A131B
:1026D000F0900B1300910C1310910D130BC0C70158
:1026E000B6010E94C01C8111F1CFF401E080F1809D
:1026F000028113819701A801B501898D9A8D0E94ED
:10270000D82A87FF09C0B701C8010E94C01C8111E7
:1027100003C05701098F1A8FA981BA81CD90DD902E
:10272000ED90FC90A70196016091CE127091CF12AE
:102730008091D0129091D1120E94ED2818164CF081
:10274000E090CE12F090CF120091D0121091D112E1
:102750000CC0C701B6010E94C01C8111F1CFE981F4
:10276000FA81E080F180028113819701A801B5010F
:10277000898D9A8D0E94D82A87FF09C0B701C801A8
:102780000E94C01C811103C05701098F1A8FA981B3
:10279000BA81CD90DD90ED90FC90A70196016091FB
:1027A000D2127091D3128091D4129091D5120E94BE
:1027B000ED2818164CF0E090D212F090D312009150
:1027C000D4121091D5120CC0C701B6010E94C01CD2
:1027D0008111F1CFE981FA81E080F18002811381DA
:1027E0009701A801B501898D9A8D0E94D82A87FF8B
:1027F00009C0B701C8010E94C01C811103C0570164
:10280000098F1A8FA981BA81CD90DD90ED90FC904F
:10281000A70196016091D6127091D7128091D812BB
:102820009091D9120E94ED2818164CF0E090D61223
:10283000F090D7120091D8121091D9120CC0C70194
:10284000B6010E94C01C8111F1CFE981FA81E080BC
:10285000F180028113819701A801B501898D9A8DBC
:102860000E94D82A87FF09C0B701C8010E94C01C76
:10287000811103C05701098F1A8FA981BA81CD90A8
:10288000DD90ED90FC90A70196016091DA127091B5
:10289000DB128091DC129091DD120E94ED28181657
:1028A0004CF0E090DA12F090DB120091DC12109103
:1028B000DD120CC0C701B6010E94C01C8111F1CF0E
:1028C000E981FA81E080F180028113819701A801FA
:1028D000B501898D9A8D0E94D82A87FF09C0B7015A
:1028E000C8010E94C01C811103C05701098F1A8FB3
:1028F000A981BA81CD90DD90ED90FC90A701960161
:1029000060910E1370910F13809110139091111319
:102910000E94ED2818164CF0E0900E13F0900F1363
:1029200000911013109111130CC0C701B6010E9441
:10293000C01C8111F1CFE981FA81E080F180028130
:1029400013819701A801B501898D9A8D0E94D82A1B
:1029500087FF09C0B701C8010E94C01C811103C0D4
:102960005701098F1A8FD401CD90DD90ED90FC9026
:10297000A70196016091DE127091DF128091E01242
:102980009091E1120E94ED2818164CF0E090DE12B2
:10299000F090DF120091E0121091E1120AC0C7011D
:1029A000B601EED78111F2CFF401E080F18002810F
:1029B00013819701A801B501898D9A8D0E94D82AAB
:1029C00087FF08C0B701C801DBD7811103C05701D9
:1029D000098F1A8FD401CD90DD90ED90FC90A70166
:1029E00096016091E2127091E3128091E41290914D
:1029F000E5120E94ED2818164CF0E090E212F090DB
:102A0000E3120091E4121091E5120AC0C701B60169
:102A1000B7D78111F2CFF401E080F18002811381F8
:102A20009701A801B501898D9A8D0E94D82A87FF48
:102A300008C0B701C801A4D7811103C05701098F8D
:102A40001A8FD301CD90DD90ED90FC90A7019601F7
:102A50006091E6127091E7128091E8129091E9126C
:102A60000E94ED2818164CF0E090E612F090E71264
:102A70000091E8121091E9120AC0C701B60180D78F
:102A80008111F2CFF301E080F1800281138197017F
:102A9000A801B501898D9A8D0E94D82A87FF08C0A8
:102AA000B701C8016DD7811103C05701098F1A8F73
:102AB000D301CD90DD90ED90FC90A701960160913F
:102AC000EA127091EB128091EC129091ED120E943B
:102AD000ED2818164CF0E090EA12F090EB120091FD
:102AE000EC121091ED120AC0C701B60149D781114D
:102AF000F2CFF301E080F180028113819701A801F8
:102B0000B501898D9A8D0E94D82A87FF08C0B70128
:102B1000C80136D7811103C05701098F1A8FD3011D
:102B2000CD90DD90ED90FC90A70196016F8578899E
:102B300089899A890E94ED2818165CF4C701B601AC
:102B40001FD7811106C0F301E080F180028113815B
:102B500004C0EF84F88809891A899701A801B50192
:102B6000898D9A8D0E94D82A87FF08C0B701C801B5
:102B700007D7811103C05701098F1A8FD401CD9057
:102B8000DD90ED90FC90A70196016091F612709196
:102B9000F7128091F8129091F9120E94ED28181600
:102BA0004CF0E090F612F090F7120091F8121091AC
:102BB000F9120AC0C701B601E3D68111F2CFF401C0
:102BC000E080F180028113819701A801B501898D10
:102BD0009A8D0E94D82A87FF08C0B701C801D0D6B5
:102BE000811103C05701098F1A8FAD81BE81CD902D
:102BF000DD90ED90FC90A70196016091FA12709122
:102C0000FB128091FC129091FD120E94ED28181683
:102C10004CF0E090FA12F090FB120091FC1210912F
:102C2000FD120BC0C701B601ABD68111F2CFED8109
:102C3000FE81E080F180028113819701A801B50136
:102C4000898D9A8D0E94D82A87FF08C0B701C801D4
:102C500097D6811103C05701098F1A8FAF81B885AC
:102C6000CD90DD90ED90FC90A70196016091FE1251
:102C70007091FF1280910013909101130E94ED2832
:102C800018164CF0E090FE12F090FF120091001325
:102C9000109101130BC0C701B60172D68111F2CF9A
:102CA000EF81F885E080F180028113819701A8010E
:102CB000B501898D9A8D0E94D82A87FF08C0B70177
:102CC000C8015ED6811103C05701098F1A8FAF81E9
:102CD000B885CD90DD90ED90FC90A70196016091B4
:102CE00002137091031380910413909105130E94B5
:102CF000ED2818164CF0E0900213F09003130091A9
:102D00000413109105130BC0C701B60139D6811108
:102D1000F2CFEF81F885E080F18002811381970185
:102D2000A801B501898D9A8D0E94D82A87FF08C015
:102D3000B701C80125D6811103C05701098F1A8F29
:102D4000D301CD90DD90ED90FC90A70196016091AC
:102D500006137091071380910813909109130E9434
:102D6000ED2818164CF0C0900613D0900713E09091
:102D70000813F09009130AC0C701B60101D68111EA
:102D8000F2CFF301C080D180E280F380A7019601E9
:102D9000B501898D9A8D0E94D82A87FD0AC0C50188
:102DA000A98DBA8DE985FA8580839183A283B38347
:102DB0000CC0C701B601E4D58111F1CFA985BA8550
:102DC000CD92DD92ED92FC921397EB89FC893196BE
:102DD000FC8BEB8BF4E06F0E711C89859A85049651
:102DE0009A878987AF81B8851496B887AF83ED81BC
:102DF000FE813496FE83ED83F4E08F0E911C898171
:102E00009A8104969A838983AB89BC89A536B105DA
:102E100009F04CCAC0901A11D0901B11E0901C11FF
:102E2000F0901D110EE111E1F801219131914191D4
:102E300051918F01C701B6010E9476286B017C0178
:102E4000F2E10E3A1F0781F72091B2123091B312CE
:102E50004091B4125091B5126091B6127091B712B0
:102E60008091B8129091B9120E9476282091BA12DE
:102E70003091BB124091BC125091BD120E94762835
:102E80002091BE123091BF124091C0125091C112D8
:102E90000E9476282091F2123091F3124091F412A0
:102EA0005091F5120E9476282091EE123091EF1287
:102EB0004091F0125091F1120E9476282091C21296
:102EC0003091C3124091C4125091C5120E947628CD
:102ED0002091C6123091C7124091C8125091C91268
:102EE0000E9476282091CA123091CB124091CC12C8
:102EF0005091CD120E94762820910A1330910B1325
:102F000040910C1350910D130E9476282091CE12FF
:102F10003091CF124091D0125091D1120E94762858
:102F20002091D2123091D3124091D4125091D512E7
:102F30000E9476282091D6123091D7124091D81253
:102F40005091D9120E9476282091DA123091DB122A
:102F50004091DC125091DD120E94762820910E13D0
:102F600030910F1340911013509111130E94762845
:102F70002091DE123091DF124091E0125091E11267
:102F80000E9476282091E2123091E3124091E412DF
:102F90005091E5120E9476282091E6123091E712B6
:102FA0004091E8125091E9120E9476282091EA128D
:102FB0003091EB124091EC125091ED120E94762864
:102FC0002F85388949895A890E9476282091F612DE
:102FD0003091F7124091F8125091F9120E94762820
:102FE0002091FA123091FB124091FC125091FD1287
:102FF0000E9476282091FE123091FF12409100131A
:10300000509101130E9476282091021330910313EE
:1030100040910413509105130E94762820910613C5
:103020003091071340910813509109130E9476289C
:103030002091BE0C3091BF0C4091C00C5091C10C3E
:103040000E94D82A18162CF460E070E080E89FE314
:1030500003C060E070E0CB012091C20C3091C30C42
:103060004091C40C5091C50C0E94D82A87FD78C0AD
:1030700002EB12E0AAE1AA2EA1E1BA2ED8012D910D
:103080003D914D915D918D01F5016081718182814C
:1030900093810E94DC2AD5016D937D938D939D933E
:1030A0005D01B4E006341B0749F710911A11009135
:1030B0001B11B0901C11A0901D11812F902FAB2DD2
:1030C000BA2D8093F2129093F312A093F412B0935E
:1030D000F512FEE18F2EF1E19F2EF4012191319145
:1030E000419151914F01612F702F8B2D9A2D0E948C
:1030F0007628162F072FB82EA92EFEEA8F16F2E19A
:103100009F0659F7862F902FAB2DBA2D8093F21280
:103110009093F312A093F412B093F51220E030E0F4
:10312000A901C701B6010E94ED28181644F0C0900D
:103130004604D0904704E0904804F0904904A70169
:103140009601612F702F8B2D9A2D0E94F12860938C
:10315000061370930713809308139093091310C0FC
:103160008091AE029091AF02A091B002B091B102F5
:103170008093061390930713A0930813B093091339
:103180002091161130911711409118115091191179
:1031900060910613709107138091081390910913A1
:1031A0000E9476286B017C016093061370930713CD
:1031B00080930813909309138090CA0C9090CB0CC5
:1031C000A090CC0CB090CD0CA50194010E94D82AFF
:1031D000181684F08090CE0C9090CF0CA090D00C5C
:1031E000B090D10CA5019401C701B6010E94ED2851
:1031F00087FF09C08092AE129092AF12A092B012D7
:10320000B092B11208C0C092AE12D092AF12E0924A
:10321000B012F092B112E091FC10F091FD106081BB
:103220007181828193812091D20C3091D30C409195
:10323000D40C5091D50C0E94BA0219E0E12EF12C69
:1032400000E010E022E832E046ED5CE00E9452012E
:103250002091AE123091AF124091B0125091B11244
:103260000E9476286B017C0120E030E040E853E4C6
:103270000E94ED2887FF0EC020E030E0A901C701C1
:10328000B6010E94D82A87FD07C0C701B6010E9477
:10329000592903C06FEF01C060E070E08091AA027D
:1032A000FCD76B857C858D859E850E94C2296093A5
:1032B000F2127093F3128093F4129093F51260D38C
:1032C000882349F01092F2121092F3121092F41225
:1032D0001092F51221C06091F2127091F312809158
:1032E000F4129091F51221D38111ECCF6091F2127A
:1032F0007091F3128091F4129091F51220E030E079
:1033000040E857E40E94DC296093F2127093F312B4
:103310008093F4129093F512C090F212D090F312B1
:10332000E090F412F090F51220E030E0A901C7011E
:10333000B6010E94ED2887FF09C0C701B601905869
:103340000E94592971956195710904C0C701B601A0
:103350000E94592970931313609312136D897E890B
:103360008F89988D0E94C2296093F2127093F31294
:103370008093F4129093F51203D3882349F01092AE
:10338000F2121092F3121092F4121092F51221C060
:103390006091F2127091F3128091F4129091F512F3
:1033A000C4D28111ECCF6091F2127091F31280912E
:1033B000F4129091F51220E030E040E857E40E94CA
:1033C000DC296093F2127093F3128093F4129093BD
:1033D000F512C090F212D090F312E090F412F09037
:1033E000F51220E030E0A901C701B6010E94ED28E6
:1033F00087FF09C0C701B60190580E9459297195ED
:103400006195710904C0C701B6010E9459297093E2
:103410001513609314138091160D1AD7C090060DE2
:10342000D090070DE090080DF090090DBC0180E0F0
:1034300090E00E9485292091FE0C3091FF0C409174
:10344000000D5091010D0E94DC2A2091020D309157
:10345000030D4091040D5091050D0E94F1284B0180
:103460005C0120910A0D30910B0D40910C0D509193
:103470000D0DC701B6010E9476289B01AC01C70162
:10348000B6010E94F1289B01AC01C501B4010E9464
:10349000F1280E94C2296093F2127093F312809374
:1034A000F4129093F5126CD2882349F01092F21224
:1034B0001092F3121092F4121092F51221C0609142
:1034C000F2127091F3128091F4129091F5122DD2B4
:1034D0008111ECCF6091F2127091F3128091F4128D
:1034E0009091F51220E030E040E857E40E94DC299A
:1034F0006093F2127093F3128093F4129093F5128A
:10350000C090F212D090F312E090F412F090F51205
:1035100020E030E0A901C701B6010E94ED2887FF35
:1035200009C0C701B60190580E945929719561954B
:10353000710904C0C701B6010E945929709317137D
:103540006093161326E031E146E153E164E173E153
:1035500082E193E1A2D38B859C85AD85BE85809366
:103560000A1190930B11A0930C11B0930D118D893A
:103570009E89AF89B88D80930E1190930F11A093FF
:103580001011B09311112092121130921311409228
:103590001411509215118091AE129091AF12A0911A
:1035A000B012B091B1128093161190931711A0939D
:1035B0001811B093191126E031E146E153E164E1BD
:1035C00073E182E193E1D4D36091E6107091E7104A
:1035D0008091E8109091E9106F5F7F4F8F4F9F4F60
:1035E0006093E6107093E7108093E8109093E910D1
:1035F0006115710581059105A1F40091EA10109102
:10360000EB102091EC103091ED100F5F1F4F2F4FFA
:103610003F4F0093EA101093EB102093EC1030937F
:10362000ED10C090EE10D090EF10E090F010F09000
:10363000F1100091FC101091FD100E948529A70146
:1036400096010E94DC2A4B015C016091EA107091A6
:10365000EB108091EC109091ED100E948529A7014C
:1036600096010E94DC2A20E030E040E85FE40E94FE
:10367000DC2A9B01AC01C501B4010E947628D80167
:103680006D937D938D939C9313978091F2109091FD
:10369000F310A091F410B091F5100196A11DB11D89
:1036A0008093F2109093F310A093F410B093F51060
:1036B000892B8A2B8B2B99F48091F6109091F7101F
:1036C000A091F810B091F9100196A11DB11D809341
:1036D000F6109093F710A093F810B093F9106A9633
:1036E0000FB6F894DEBF0FBECDBFDF91CF911F9113
:1036F0000F91FF90EF90DF90CF90BF90AF909F9091
:103700008F907F906F905F904F903F902F90089593
:10371000CF93DF9384E090E0D1D0E9E6F0E18DE94A
:10372000DF011D928A95E9F78AEF90E190936E1080
:1037300080936D10ACEFB0E1B093A810A093A710E8
:10374000CEEED0E1D0937C10C0937B10F093D210DA
:10375000E093D110F0936C10E0936B1021E030E017
:10376000FC01318320838CE69DE09093721080935E
:1037700071108EEF90E18D939C938DEC9CECACECF2
:10378000BDE388839983AA83BB838EEF91E0EAE14E
:10379000F1E1DF019C011D9221503040E1F7C6E0CC
:1037A000D1E184E1DE011D928A95E9F760910E0D69
:1037B00070910F0D8091100D9091110D0E94CC27EA
:1037C0006091120D7091130D8091140D9091150D53
:1037D0000E94CC2761E08091AA0277D66091160DF5
:1037E0007091170D8091180D9091190D0E94CC27A2
:1037F00080914E0490914F04A0915004B0915104D7
:1038000080930A1190930B11A0930C11B0930D119A
:103810008091620490916304A0916404B091650466
:1038200080930E1190930F11A0931011B09311116A
:103830008091760490917704A0917804B0917904F6
:103840008093121190931311A0931411B09315113A
:103850008091C60C9091C70CA091C80CB091C90C76
:103860008093161190931711A0931811B09319110A
:10387000188219821A821B82DF91CF9108950895D0
:1038800060E070E080E89FE7089560E070E080E825
:103890009FE7089560E070E080E89FEF089560E0A2
:1038A00070E080E89FEF089560E070E080EC9FEFAB
:1038B000089560E070E080EC9FEF0895F5DF60937D
:1038C0002413709325138093261390932713F1DF0D
:1038D000609318137093191380931A1390931B130A
:1038E000CFDF609320137093211380932213909362
:1038F0002313CBDF60931C1370931D1380931E134F
:1039000090931F13C7DF609328137093291380933C
:103910002A1390932B13C3DF60932C1370932D13F2
:1039200080932E1390932F130895CF92DF92EF92EE
:10393000FF92CF936B017C012091201330912113D2
:1039400040912213509123130E94ED28882389F07F
:10395000C1E0209128133091291340912A135091EE
:103960002B13C701B6010E94ED288111C0E08C2FF6
:1039700001C081E0CF91FF90EF90DF90CF9008954C
:10398000CF93C1E09B01AC010E94ED28811101C0E1
:10399000C0E08C2FCF910895CF93DF93EC0160E0CE
:1039A0008E81CCD581E090E0E7D361E08E81C6D5F1
:1039B00081E090E0E1D360E08E81C0D584E690E0C4
:1039C000DF91CF91D9C3CF92DF92EF92FF920F9305
:1039D0001F93CF93DF937C01C0E0D0E0C62ED12CA3
:1039E00087010C0F1D1F61E0F80187816ED5B601BC
:1039F0000C2E02C0759567950A94E2F76170F80184
:103A000087819CD52196C430D10551F7C701DF913C
:103A1000CF911F910F91FF90EF90DF90CF90BCCF8F
:103A2000CF92DF92EF92FF920F931F93CF93DF938A
:103A30007C01C0E0D0E0C62ED12C87010C0F1D1FE9
:103A400061E0F801878141D5B6010C2E02C0759561
:103A500067950A94E2F76170F80187816FD5219626
:103A6000C830D10551F7C701DF91CF911F910F9158
:103A7000FF90EF90DF90CF908FCF1F93CF93DF9386
:103A8000EC01162F642F8C8159D58D818F3F11F059
:103A900060E054D58F85612F84FF05C0CE01DF9192
:103AA000CF911F91BDCF70E084E0759567958A95A1
:103AB000E1F7CE0188DF612FCE01DF91CF911F9119
:103AC00082CF40E0DACF61E0FCDF80ED97E054C3C5
:103AD000443008F043E0FC012389421710F04FEF17
:103AE000420FFC01E40FF11D2489260F2068622F8C
:103AF000E8CFFC016089262F2460208B6C60E1CF29
:103B0000CF93DF93EC01423018F08F8588608F8768
:103B10004B8B1C8A80E48D8B6E8B70E0605C7F4FDA
:103B20006F8B222329F0413019F48F8584608F87B1
:103B300080E593EC21D360E08C8100D560E08E813C
:103B4000FDD48D818F3F11F060E0F8D46F8564FD66
:103B500016C063E0CE0137DF84E991E10DD363E065
:103B6000CE0131DF84E991E107D363E0CE012BDFA1
:103B700086E990E001D362E0CE0125DF11C06062EA
:103B8000CE019FDF84E991E1F7D26F856062CE01BB
:103B900098DF86E990E0F0D26F856062CE0191DF18
:103BA0006F856062CE018DDF84E0888BCE01A1DF5E
:103BB000CE0189DF82E0898B66E0CE01DF91CF9173
:103BC00080CF6F927F928F92AF92CF92EF920F93AE
:103BD0001F93CF93DF93CDB7DEB73C01162F842F11
:103BE0005E854F8538899989F3018483258306830F
:103BF000E782C086A1868286538744873587968769
:103C000061E063D4F30185818F3F11F061E05DD401
:103C100061E0F301868159D4112319F0F30117866D
:103C200003C080E1F301878720E041E060E1C30148
:103C3000DF91CF911F910F91EF90CF90AF908F9028
:103C40007F906F905DCF8F92AF92CF92EF920F9354
:103C5000DC0113961C921E921297E9E9FDE0ED93A8
:103C6000FC931F921F921F921F928C2CAE2CC02E81
:103C7000E22E042F2FEF462F61E0A3DF0F900F906D
:103C80000F900F900F91EF90CF90AF908F9008957D
:103C900041E0F3DE81E090E00895EF92FF920F9310
:103CA0001F93CF93DF937C018B01EA01F90120E0A0
:103CB00030E040E85FE360817181828193810E94FE
:103CC000ED2881114EC084EB9DE0FDDE60E87DE0D3
:103CD00084EB9DE00E94B22640E066E084EB9DE02C
:103CE000F7DEF701608171814AE050E084EB9DE0EE
:103CF0000E94232740E069E084EB9DE0E9DE67E86D
:103D00007DE084EB9DE00E94B22640E06DE084EB14
:103D10009DE0DEDEF801608171814AE050E084EBD5
:103D20009DE00E94232741E060E084EB9DE0D0DE2F
:103D30006CE87DE084EB9DE00E94B22641E068E003
:103D400084EB9DE0C5DE688179814AE050E084EB38
:103D50009DE0DF91CF911F910F91FF90EF900C9418
:103D60002327DF91CF911F910F91FF90EF9008953E
:103D7000CF93DF93E90120E030E040E85FE3688122
:103D800079818A819B810E94ED28882371F020E04F
:103D900042E060E184EB9DE0B3DE80E090E0A0E8EB
:103DA000BFE388839983AA83BB83DF91CF91089572
:103DB000CF92EF920F9395E1C92E24E1E22E03E119
:103DC00022E141E16FE084EB9DE03DDF0F91EF9058
:103DD000CF9008951F920F920FB60F9211240BB639
:103DE0000F922F933F934F935F936F937F938F9394
:103DF0009F93AF93BF93EF93FF938091D00D9091DA
:103E0000D10D892B29F0E091D00DF091D10D1995AC
:103E1000FF91EF91BF91AF919F918F917F916F91A2
:103E20005F914F913F912F910F900BBE0F900FBE5E
:103E30000F901F9018951F920F920FB60F9211249A
:103E40000BB60F922F933F934F935F936F937F9394
:103E50008F939F93AF93BF93EF93FF938091D20D76
:103E60009091D30D892B29F0E091D20DF091D30DD3
:103E70001995FF91EF91BF91AF919F918F917F9194
:103E80006F915F914F913F912F910F900BBE0F90CB
:103E90000FBE0F901F9018951F920F920FB60F92A2
:103EA00011240BB60F922F933F934F935F936F9311
:103EB0007F938F939F93AF93BF93EF93FF938091E3
:103EC000D40D9091D50D892B29F0E091D40DF0916E
:103ED000D50D1995FF91EF91BF91AF919F918F9162
:103EE0007F916F915F914F913F912F910F900BBEFA
:103EF0000F900FBE0F901F9018951F920F920FB644
:103F00000F9211240BB60F922F933F934F935F9311
:103F10006F937F938F939F93AF93BF93EF93FF9391
:103F20008091D60D9091D70D892B29F0E091D60D77
:103F3000F091D70D1995FF91EF91BF91AF919F919E
:103F40008F917F916F915F914F913F912F910F9042
:103F50000BBE0F900FBE0F901F9018951F920F92DF
:103F60000FB60F9211240BB60F922F933F934F93DE
:103F70005F936F937F938F939F93AF93BF93EF93D1
:103F8000FF938091CC0D9091CD0D892B29F0E0917C
:103F9000CC0DF091CD0D1995FF91EF91BF91AF919F
:103FA0009F918F917F916F915F914F913F912F9151
:103FB0000F900BBE0F900FBE0F901F9018951F9281
:103FC0000F920FB60F9211240BB60F922F933F93BF
:103FD0004F935F936F937F938F939F93AF93BF9311
:103FE000EF93FF938091CE0D9091CF0D892B29F007
:103FF000E091CE0DF091CF0D1995FF91EF91BF910A
:10400000AF919F918F917F916F915F914F913F9170
:104010002F910F900BBE0F900FBE0F901F90189511
:104020001F920F920FB60F9211240BB60F922F937F
:104030003F934F935F936F937F938F939F93AF9330
:10404000BF93EF93FF938091D80D9091D90D892B59
:1040500029F0E091D80DF091D90D1995FF91EF91CC
:10406000BF91AF919F918F917F916F915F914F9190
:104070003F912F910F900BBE0F900FBE0F901F908E
:1040800018951F920F920FB60F9211240BB60F9234
:104090002F933F934F935F936F937F938F939F9350
:1040A000AF93BF93EF93FF938091DA0D9091DB0D67
:1040B000892B29F0E091DA0DF091DB0D1995FF9134
:1040C000EF91BF91AF919F918F917F916F915F9190
:1040D0004F913F912F910F900BBE0F900FBE0F90FD
:1040E0001F9018951F920F920FB60F9211242F93C5
:1040F0003F938F939F93AF93BF938091DD0D9091EA
:10410000DE0DA091DF0DB091E00D3091DC0D23E0CC
:10411000230F2D3720F40196A11DB11D05C026E8FF
:10412000230F0296A11DB11D2093DC0D8093DD0DA0
:104130009093DE0DA093DF0DB093E00D8091E10D23
:104140009091E20DA091E30DB091E40D0196A11DB7
:10415000B11D8093E10D9093E20DA093E30DB09318
:10416000E40DBF91AF919F918F913F912F910F904F
:104170000FBE0F901F901895019739F0880F991F67
:10418000880F991F02970197F1F70895789484B5E5
:10419000826084BD84B5816084BD85B5826085BD43
:1041A00085B5816085BDEEE6F0E080818160808329
:1041B000E1E8F0E01082808182608083808181600C
:1041C0008083E0E8F0E0808181608083E1EBF0E0D3
:1041D000808184608083E0EBF0E080818160808377
:1041E000E1E9F0E08081826080838081816080836A
:1041F000E0E9F0E0808181608083E1EAF0E08081A5
:1042000082608083808181608083E0EAF0E0808149
:1042100081608083E1E2F1E080818260808380813F
:1042200081608083E0E2F1E0808181608083EAE761
:10423000F0E08081846080838081826080838081DF
:10424000816080838081806880831092C10008959E
:10425000863308F0865320917B00982F9870277F33
:10426000922B90937B00877020916A0D90E4299F98
:1042700090011124822B80937C0080917A008064CD
:1042800080937A0080917A0086FDFCCF809178003F
:104290002091790090E0922B08951F93CF93DF93A4
:1042A000182FEB0161E011D1209711F460E004C0F8
:1042B000CF3FD10531F461E0812FDF91CF911F9184
:1042C0003DC1E12FF0E0E45DFE4F449150E0FA0182
:1042D0003197E231F10508F09BC0EE58FF4F0C9486
:1042E000612B84B5806884BDC7BD97C084B58062EA
:1042F00084BDC8BD92C0809180008068809380009A
:10430000D0938900C093880088C08091800080622B
:1043100080938000D0938B00C0938A007EC08091F0
:104320008000886080938000D0938D00C0938C00C3
:1043300074C08091B00080688093B000C093B300D7
:104340006CC08091B00080628093B000C093B400D4
:1043500064C080919000806880939000D093990011
:10436000C09398005AC08091900080628093900022
:10437000D0939B00C0939A0050C0809190008860B9
:1043800080939000D0939D00C0939C0046C0809184
:10439000A00080688093A0008091A0008F7B809314
:1043A000A000D093A900C093A80037C08091A000BE
:1043B00080628093A000D093AB00C093AA002DC070
:1043C0008091A00088608093A000D093AD00C0933E
:1043D000AC0023C080912001806880932001D0939D
:1043E0002901C093280119C0809120018062809327
:1043F0002001D0932B01C0932A010FC0809120018E
:10440000886080932001D0932D01C0932C0105C0BA
:10441000C038D1050CF04FCF49CFDF91CF911F911C
:10442000089590E0FC013197E231F10508F04CC0AD
:10443000EC57FF4F0C94612B809180008F7703C065
:10444000809180008F7D809380000895809180000E
:10445000877FF9CF84B58F7702C084B58F7D84BD07
:1044600008958091B0008F7703C08091B0008F7D58
:104470008093B0000895809190008F7707C080915D
:1044800090008F7D03C080919000877F8093900083
:1044900008958091A0008F7707C08091A0008F7D44
:1044A00003C08091A000877F8093A0000895809131
:1044B00020018F7707C0809120018F7D03C08091FC
:1044C0002001877F809320010895CF93DF9390E0B0
:1044D000FC01EE58FE4F2491FC01E854FE4F8491FC
:1044E000882349F190E0880F991FFC01E85EFD4F99
:1044F000A591B49182509E4FFC01C591D4919FB774
:10450000611108C0F8948C91209582238C93888146
:1045100082230AC0623051F4F8948C91322F309586
:1045200083238C938881822B888304C0F8948C9198
:10453000822B8C939FBFDF91CF9108950F931F9390
:10454000CF93DF931F92CDB7DEB7282F30E0F9016C
:10455000E45DFE4F8491F901EE58FE4F1491F9018C
:10456000E854FE4F04910023C1F0882319F06983B9
:1045700058DF6981E02FF0E0EE0FFF1FE250FE4FA1
:10458000A591B4919FB7F8948C91611103C01095D7
:10459000812301C0812B8C939FBF0F90DF91CF911E
:1045A0001F910F910895FC01818D228D90E0805C18
:1045B0009F4F821B91098F7399270895FC01918D5C
:1045C000828D981731F0828DE80FF11D858D90E076
:1045D00008958FEF9FEF0895FC01918D828D9817BC
:1045E00061F0828DDF01A80FB11D5D968C91928DD7
:1045F0009F5F9F73928F90E008958FEF9FEF0895D4
:10460000FC01848DDF01A80FB11DA35ABF4F2C916F
:10461000848D90E001968F739927848FA689B7893E
:104620002C93A089B1898C9180648C93938D848D17
:10463000981306C00288F389E02D80818F7D8083E6
:104640000895CF93DF93EC01888D8823C1F0EA8928
:10465000FB89808185FD05C0A889B9898C9186FD7B
:104660000EC00FB607FCF5CF808185FFF2CFA88979
:10467000B9898C9185FFEDCFCE01C2DFE8CFDF9104
:10468000CF910895CF92DF92FF920F931F93CF9314
:10469000DF931F92CDB7DEB76C01DC015B969C9176
:1046A0005B975C968C915C97981307C05096ED9140
:1046B000FC915197808185FD31C0F601038D10E09A
:1046C0000F5F1F4F0F731127F02EF601848DF81224
:1046D00010C00FB607FCF9CFD6015096ED91FC91B2
:1046E0005197808185FFF1CFC601698389DF698198
:1046F000ECCF838DE80FF11DE35AFF4F6083D601A5
:104700005B960C935B975296ED91FC915397808149
:104710008062808381E058968C930DC0D6015696B6
:10472000ED91FC91579760835096ED91FC915197D4
:1047300080818064808381E090E00F90DF91CF9151
:104740001F910F91FF90DF90CF9008951F920F92CD
:104750000FB60F9211240BB60F922F938F939F9346
:10476000EF93FF93E091F50DF091F60D8081E091CC
:10477000FB0DF091FC0D82FD12C090818091FE0D29
:104780008F5F8F732091FF0D821751F0E091FE0D26
:10479000F0E0EB51F24F958F8093FE0D01C08081C8
:1047A000FF91EF919F918F912F910F900BBE0F90E2
:1047B0000FBE0F901F9018951F920F920FB60F9279
:1047C00011240BB60F922F933F934F935F936F93E8
:1047D0007F938F939F93AF93BF93EF93FF9385EE58
:1047E0009DE00EDFFF91EF91BF91AF919F918F916F
:1047F0007F916F915F914F913F912F910F900BBEE1
:104800000F900FBE0F901F9018951092E80D109208
:10481000E70D88EE93E0A0E0B0E08093E90D90937F
:10482000EA0DA093EB0DB093EC0D81EA9DE090931F
:10483000E60D8093E50D85EC90E09093F20D80936A
:10484000F10D84EC90E09093F40D8093F30D80ECE7
:1048500090E09093F60D8093F50D81EC90E09093AD
:10486000F80D8093F70D82EC90E09093FA0D809311
:10487000F90D86EC90E09093FC0D8093FB0D109267
:10488000FE0D1092FF0D1092000E1092010E089571
:104890001F920F920FB60F9211240BB60F922F9307
:1048A0008F939F93EF93FF93E091920EF091930E6D
:1048B0008081E091980EF091990E82FD12C0908156
:1048C00080919B0E8F5F8F7320919C0E821751F009
:1048D000E0919B0EF0E0EE57F14F958F80939B0E89
:1048E00001C08081FF91EF919F918F912F910F9047
:1048F0000BBE0F900FBE0F901F9018951F920F9236
:104900000FB60F9211240BB60F922F933F934F9334
:104910005F936F937F938F939F93AF93BF93EF9327
:10492000FF9382E89EE06CDEFF91EF91BF91AF9123
:104930009F918F917F916F915F914F913F912F91B7
:104940000F900BBE0F900FBE0F901F9018951092F6
:10495000850E1092840E88EE93E0A0E0B0E0809384
:10496000860E9093870EA093880EB093890E81EAED
:104970009DE09093830E8093820E8DEC90E0909357
:104980008F0E80938E0E8CEC90E09093910E80931E
:10499000900E88EC90E09093930E8093920E89ECA9
:1049A00090E09093950E8093940E8AEC90E0909313
:1049B000970E8093960E8EEC90E09093990E8093D4
:1049C000980E10929B0E10929C0E10929D0E1092BB
:1049D0009E0E08951F920F920FB60F9211240BB6E0
:1049E0000F922F938F939F93EF93FF93E0912F0F4D
:1049F000F091300F8081E091350FF091360F82FDFC
:104A000012C090818091380F8F5F8F732091390F82
:104A1000821751F0E091380FF0E0E15EF04F958F92
:104A20008093380F01C08081FF91EF919F918F910A
:104A30002F910F900BBE0F900FBE0F901F901895E7
:104A40001F920F920FB60F9211240BB60F922F9355
:104A50003F934F935F936F937F938F939F93AF9306
:104A6000BF93EF93FF938FE19FE0CADDFF91EF913A
:104A7000BF91AF919F918F917F916F915F914F9176
:104A80003F912F910F900BBE0F900FBE0F901F9074
:104A900018951092220F1092210F88EE93E0A0E05B
:104AA000B0E08093230F9093240FA093250FB09331
:104AB000260F81EA9DE09093200F80931F0F85EDD4
:104AC00090E090932C0F80932B0F84ED90E09093C7
:104AD0002E0F80932D0F80ED90E09093300F8093F8
:104AE0002F0F81ED90E09093320F8093310F82ED84
:104AF00090E09093340F8093330F86ED90E0909385
:104B0000360F8093350F1092380F1092390F109294
:104B10003A0F10923B0F08951F920F920FB60F920B
:104B200011240BB60F922F938F939F93EF93FF93C4
:104B3000E091CC0FF091CD0F8081E091D20FF091F8
:104B4000D30F82FD12C090818091D50F8F5F8F733C
:104B50002091D60F821751F0E091D50FF0E0E45488
:104B6000F04F958F8093D50F01C08081FF91EF9119
:104B70009F918F912F910F900BBE0F900FBE0F90B2
:104B80001F9018951F920F920FB60F9211240BB61B
:104B90000F922F933F934F935F936F937F938F93D6
:104BA0009F93AF93BF93EF93FF938CEB9FE028DD30
:104BB000FF91EF91BF91AF919F918F917F916F91F5
:104BC0005F914F913F912F910F900BBE0F900FBEB1
:104BD0000F901F9018951092BF0F1092BE0F88EE85
:104BE00093E0A0E0B0E08093C00F9093C10FA0933A
:104BF000C20FB093C30F81EA9DE09093BD0F8093E5
:104C0000BC0F85E391E09093C90F8093C80F84E3B4
:104C100091E09093CB0F8093CA0F80E391E0909343
:104C2000CD0F8093CC0F81E391E09093CF0F8093D1
:104C3000CE0F82E391E09093D10F8093D00F86E363
:104C400091E09093D30F8093D20F1092D50F1092D2
:104C5000D60F1092D70F1092D80F0895AF92BF922F
:104C6000CF92DF92EF92FF920F931F93CF93DF9338
:104C70006C017B01C0E0D0E000E010E0F601EC0F39
:104C8000FD1F4AE050E06281C701D7D05C016EE2AF
:104C9000C70169D08A0D9B1D080F191F2196C330CB
:104CA000D10561F74AE050E0F6016581C701C5D042
:104CB000800F911FDF91CF911F910F91FF90EF9087
:104CC000DF90CF90BF90AF90089581EB9DE09093DF
:104CD0005A108093591010925B1010925C10109231
:104CE0005D1010925E100895CF92DF92EF92FF92C6
:104CF0000F931F93CF93DF936C017A01EB01E60EC4
:104D0000F71E00E010E0CE15DF0561F06991D601D5
:104D1000ED91FC910190F081E02DC6011995080FED
:104D2000191FF1CFC801DF91CF911F910F91FF9013
:104D3000EF90DF90CF9008956115710581F0DB0150
:104D40000D900020E9F7AD0141505109461B570B6A
:104D5000DC01ED91FC910280F381E02D199480E05B
:104D600090E00895E9CFDC01ED91FC910190F08194
:104D7000E02D19948F929F92AF92BF92CF92DF92C3
:104D8000EF92FF920F931F93CF93DF93CDB7DEB7D0
:104D9000A1970FB6F894DEBF0FBECDBF7C01C42E25
:104DA000E52FCB01D22E19A221E02D1510F02AE01B
:104DB000D22E8E010F5D1F4F8D2C912CA12CB12C6A
:104DC0006C2D7E2FA50194015AD48C2DD29E801972
:104DD0001124015011098A3014F4805D01C0895CEE
:104DE000F8018083211531054105510521F0C22EBE
:104DF000E32FCA01E5CFB801C7019EDFA1960FB628
:104E0000F894DEBF0FBECDBFDF91CF911F910F9100
:104E1000FF90EF90DF90CF90BF90AF909F908F90DA
:104E200008952115310541F4DC01ED91FC910190CB
:104E3000F081E02D642F19949DCF9A01462F50E008
:104E400060E070E0EECF9A01AB0160E070E0E9CF86
:104E50008230A9F028F4882349F0813051F0089578
:104E6000843009F1E8F0853009F1089510926E0060
:104E7000089580916F008D7F80936F0008958091D9
:104E800070008D7F8093700081E08093B0008091EE
:104E9000B100887F84608093B1001092B3000895C0
:104EA000109271000895109272000895109273008C
:104EB0000895CF93C82F80916B0D8C1307C0E2E348
:104EC000F2E084919FEF90936B0D01C08FEFC0DFF4
:104ED00060E08C2FCF9132CB1F920F920FB60F92C2
:104EE00011240BB60F922F933F934F935F936F93C1
:104EF0007F938F939F93AF93BF93EF93FF93809193
:104F0000621090916310A0916410B0916510892B8C
:104F10008A2B8B2B51F190915F10E0916010F091F2
:104F20006110808189278083809162109091631045
:104F3000A0916410B0916510181619061A061B0688
:104F4000BCF48091621090916310A0916410B091B4
:104F500065100197A109B1098093621090936310C5
:104F6000A0936410B093651003C080916B0DA1DF16
:104F7000FF91EF91BF91AF919F918F917F916F9131
:104F80005F914F913F912F910F900BBE0F900FBEED
:104F90000F901F9018950895862F60E096CA1F9273
:104FA0000F920FB60F9211240BB60F922F933F93CF
:104FB0004F935F936F937F938F939F93AF93BF9321
:104FC000EF93FF9386E997EE909325018093240158
:104FD00034D0FF91EF91BF91AF919F918F917F91CD
:104FE0006F915F914F913F912F910F900BBE0F905A
:104FF0000FBE0F901F90189586E997EE90932501AC
:1050000080932401A3E7B0E08C918E7F8C93E0E243
:10501000F1E080818C7F8083E1E2F1E08081877E16
:10502000808380818460808380818C7F80838C9169
:1050300081608C93089581E008952091661081E04D
:10504000820F80936610222349F081E090E09093D4
:1050500068108093671020936610089578940E94DA
:105060006D03F894809166108150809366100895C6
:105070000F931F93CF93DF931F92CDB7DEB781E0DD
:10508000898384D888DF00917E0D10917F0DF8010F
:10509000118210820E94881BAFDF21E0F80180811D
:1050A0009181892B09F020E0298378947894898173
:1050B000882381F021E0F80180819181892B09F01A
:1050C00020E029838981882311F0B5DF01C080E0C9
:1050D0008983EDCF0E943F1CF89480E090E00F9010
:1050E000DF91CF911F910F9108955058BB27AA27A8
:1050F0000ED00DC2FED130F003D220F031F49F3F2C
:1051000011F41EF4F3C10EF4E095E7FBC0C1E92FE2
:105110000FD280F3BA17620773078407950718F058
:1051200071F49EF53EC20EF4E0950B2EBA2FA02D21
:105130000B01B90190010C01CA01A0011124FF2744
:10514000591B99F0593F50F4503E68F11A16F0403F
:10515000A22F232F342F4427585FF3CF469537953E
:105160002795A795F0405395C9F77EF41F16BA0B03
:10517000620B730B840BBAF09150A1F0FF0FBB1FB1
:10518000661F771F881FC2F70EC0BA0F621F731FFA
:10519000841F48F4879577956795B795F7959E3F57
:1051A00008F0B3CF9395880F08F09927EE0F9795E5
:1051B00087950895DFD180F09F3740F491110EF468
:1051C000F1C160E070E080E89FE3089526F01B16CF
:1051D000611D711D811D61C17BC135D108F481E064
:1051E00008950CD094C18CD140F083D130F021F4DB
:1051F0005F3F19F04CC15111D5C178C199D198F3D5
:105200009923C9F35523B1F3951B550BBB27AA2747
:1052100062177307840738F09F5F5F4F220F331FB9
:10522000441FAA1FA9F333D00E2E3AF0E0E830D085
:1052300091505040E695001CCAF729D0FE2F27D088
:10524000660F771F881FBB1F261737074807AB0756
:10525000B0E809F0BB0B802DBF01FF2793585F4FCB
:105260002AF09E3F510568F012C19CC15F3FECF3EC
:10527000983EDCF3869577956795B795F7959F5F90
:10528000C9F7880F911D9695879597F90895E1E0E4
:10529000660F771F881FBB1F621773078407BA0743
:1052A00020F0621B730B840BBA0BEE1F88F7E0959E
:1052B000089546D188F09F5790F0B92F9927B7519C
:1052C000A0F0D1F0660F771F881F991F1AF0BA95CA
:1052D000C9F712C0B13081F064D1B1E0089561C165
:1052E000672F782F8827B85F39F0B93FCCF38695C0
:1052F00077956795B395D9F73EF49095809570951D
:1053000061957F4F8F4F9F4F0895E89409C097FB99
:105310003EF490958095709561957F4F8F4F9F4F8C
:105320009923A9F0F92F96E9BB279395F6958795D0
:1053300077956795B795F111F8CFFAF4BB0F11F493
:1053400060FF1BC06F5F7F4F8F4F9F4F16C088233A
:1053500011F096E911C0772321F09EE8872F762F70
:1053600005C0662371F096E8862F70E060E02AF0B1
:105370009A95660F771F881FDAF7880F969587959D
:1053800097F90895F7D080F09F3740F491110EF00F
:1053900009C160E070E080E89FEB089526F41B16D9
:1053A000611D711D811D79C093C0A3D018F011F04B
:1053B000A7D038F49BC0F6C0E92FBAD0B0F355237C
:1053C000C9F3E7FB6217730784079507A8F199F300
:1053D000E92FFF2788232AF03197660F771F881F50
:1053E000DAF7952F5527442332F091505040220F81
:1053F000331F441FD2F7BB27E91BF50B621B730B4E
:10540000840BB109C1F222F4620F731F841FB11D16
:1054100031972AF0660F771F881FBB1FEFCF91507F
:1054200050405AF041F0882332F0660F771F881FF2
:1054300091505040C1F793954BC0869577956795ED
:105440009F5FD9F7F8CF990F0008550FAA0BE0E836
:10545000FEEF16161706E807F907C0F01216130636
:10546000E407F50798F0621B730B840B950B39F476
:105470000A2661F0232B242B252B21F408950A26DC
:1054800009F4A140A6958FEF811D811D089597F91C
:105490009F6780E870E060E00895882371F47723C7
:1054A00021F09850872B762F07C0662311F4992797
:1054B0000DC09051862B70E060E02AF09A95660F3F
:1054C000771F881FDAF7880F9695879597F90895C3
:1054D0009F3F31F0915020F4879577956795B79568
:1054E000880F911D9695879597F908959FEF80EC09
:1054F000089500240A94161617061806090608953A
:1055000000240A9412161306140605060895092E9F
:105510000394000C11F4882352F0BB0F40F4BF2B0E
:1055200011F460FF04C06F5F7F4F8F4F9F4F08954E
:1055300057FD9058440F551F59F05F3F71F0479544
:10554000880F97FB991F61F09F3F79F08795089529
:10555000121613061406551FF2CF4695F1DF08C048
:10556000161617061806991FF1CF86957105610565
:1055700008940895E5DFA0F0BEE7B91788F4BB27CB
:105580009F3860F41616B11D672F782F8827985F13
:10559000F7CF869577956795B11D93959639C8F3A2
:1055A0000895E894BB2766277727CB0197F90895DC
:1055B0004ADF08F48FEF08950BD0A9CF9ADF28F0C7
:1055C0009FDF18F0952309F062CF90CF1124EACF26
:1055D000AFDFA0F3959FD1F3950F50E0551F629F69
:1055E000F001729FBB27F00DB11D639FAA27F00D3C
:1055F000B11DAA1F649F6627B00DA11D661F829F63
:105600002227B00DA11D621F739FB00DA11D621F47
:10561000839FA00D611D221F749F3327A00D611D64
:10562000231F849F600D211D822F762F6A2F112446
:105630009F5750408AF0E1F088234AF0EE0FFF1F99
:10564000BB1F661F771F881F91505040A9F79E3FD0
:10565000510570F01CCFA6CF5F3FECF3983EDCF312
:10566000869577956795B795F795E7959F5FC1F70D
:10567000FE2B880F911D9695879597F90895A1E2C5
:105680001A2EAA1BBB1BFD010DC0AA1FBB1FEE1FBC
:10569000FF1FA217B307E407F50720F0A21BB30B07
:1056A000E40BF50B661F771F881F991F1A9469F783
:1056B00060957095809590959B01AC01BD01CF01DF
:1056C0000895EE0FFF1F0590F491E02D19940790B7
:0A56D000F691E02D1994F894FFCF35
:1056DA000000301380000100000000004CC19A99BC
:1056EA0019C0CDCCCCBFCDCC4CBF00000000CDCC76
:1056FA004C3F000008C1000088C000000000000004
:10570A008840000008C1CDCCCCBFCDCC4CBF000036
:10571A000000CDCC4C3FCDCCCC3F000088C000006F
:10572A0000000000884000000841000088C0CDCC7D
:10573A004CBF00000000CDCC4C3FCDCCCC3F9A9959
:10574A0019400000000000008840000008410000E5
:10575A004C4100007F430000000000007F4300002E
:10576A00000000007F430000000000007F430000AB
:10577A00000000007F43000000000A000000000053
:10578A00003F9A9919BFCFF713BF04560EBF39B419
:10579A0008BF6F1203BF48E1FABEB29DEFBE1D5AA1
:1057AA00E4BE8716D9BEF2D2CDBE5C8FC2BEC74B4D
:1057BA00B7BE3108ACBE9CC4A0BE068195BE713D81
:1057CA008ABEB6F37DBE8B6C67BE60E550BE355EA1
:1057DA003ABE0AD723BEDF4F0DBE6891EDBD1283D4
:1057EA00C0BDBC7493BDCDCC4CBD4260E5BCA69B8C
:1057FA00C4BB6F12833CE3A51B3D8FC2753D9EEF70
:10580A00A73DF4FDD43D2506013E508D173E7B147D
:10581A002E3EA69B443ED1225B3EFCA9713E9318C4
:10582A00843E295C8F3EBE9F9A3E54E3A53EE926FC
:10583A00B13E7F6ABC3E14AEC73EAAF1D23E3F35A6
:10584A00DE3ED578E93E6ABCF43E0000003FCBA1BB
:10585A00053F96430B3F60E5103F2B87163FF6281E
:10586A001C3FC1CA213F8B6C273F560E2D3F21B0EA
:10587A00323FEC51383FB6F33D3F8195433F4C37B9
:10588A00493F17D94E3FE17A543FAC1C5A3F77BE85
:10589A005F3F4260653F0C026B3FD7A3703FA24552
:1058AA00763F6DE77B3F9CC4803F8195833F666668
:1058BA00863F4C37893F31088C3F17D98E3FFCA968
:1058CA00913FE17A943FC74B973FAC1C9A3F91EDC9
:1058DA009C3F77BE9F3F5C8FA23F4260A53F273126
:1058EA00A83F0C02AB3FF2D2AD3FD7A3B03FBC7486
:1058FA00B33FA245B63F8716B93F6DE7BB3F52B8E3
:10590A00BE3F3789C13F1D5AC43F022BC73FE7FB41
:10591A00C93FCDCCCC3F0000803F0000803F000053
:10592A0000000000A0400000804400007A440040CB
:10593A001C46000000000000804400409C450040D6
:10594A001CC50000844200000000000000000000A6
:10595A00000000000000000000000000000000003D
:10596A00000000000000000000000000000000002D
:10597A00000000000000000000000000000000001D
:10598A00000000000000000000000000000000000D
:10599A0000000000000000000000000000000000FD
:1059AA0000000000000000000000000000000000ED
:1059BA0000000000000000000000000000000000DD
:1059CA0000000000000000000000000000000000CD
:1059DA0000000000000000000000000000000000BD
:1059EA0000000000000000000000000000000000AD
:1059FA00000000000000000000000000000000009D
:105A0A00000000000000000000000000000000008C
:105A1A0000002FBA68250AD7233D0AD7A33D8FC2B3
:105A2A00F53D0AD7233ECDCC4C3E8FC2753E295C4C
:105A3A008F3E0AD7A33EEC51B83ECDCCCC3EAE4702
:105A4A00E13E8FC2F53EB81E053F295C0F3F9A9989
:105A5A00193F0AD7233F7B142E3FEC51383F5C8F06
:105A6A00423FCDCC4C3F3D0A573FAE47613F1F8571
:105A7A006B3F8FC2753F0000803F8FC2753F1F8505
:105A8A006B3FAE47613F3D0A573FCDCC4C3F5C8FE1
:105A9A00423FEC51383F7B142E3F0AD7233F9A9955
:105AAA00193F295C0F3FB81E053F8FC2F53EAE472E
:105ABA00E13ECDCCCC3EEC51B83E0AD7A33E295CA0
:105ACA008F3E8FC2753ECDCC4C3E0AD7233E8FC245
